{
  "transactions": [
    {
      "hash": "0x7395a7981ea7c8a5dc10afbb5a8ab9d5f9eb4baf0e8c707303e382204d106188",
      "transactionType": "CALL",
      "contractName": null,
      "contractAddress": "0x20c000000000000000000000b9537d11c60e8b50",
      "function": "approve(address,uint256)",
      "arguments": [
        "0x000000000022D473030F116dDEE9F6B43aC78BA3",
        "115792089237316195423570985008687907853269984665640564039457584007913129639935"
      ],
      "transaction": {
        "from": "0xc88d3c73b71e6814785a0514af9ddcfa44aa93cf",
        "to": "0x20c000000000000000000000b9537d11c60e8b50",
        "gas": "0x58ae8",
        "value": "0x0",
        "input": "0x095ea7b3000000000000000000000000000000000022d473030f116ddee9f6b43ac78ba3ffffffffffffffffffffffffffffffffffffffffffffffffffffffffffffffff",
        "nonce": "0x2",
        "chainId": "0x1079",
        "feeToken": "0x20c000000000000000000000b9537d11c60e8b50",
        "calls": [],
        "keyType": null,
        "keyData": null
      },
      "additionalContracts": [],
      "isFixedGasLimit": false
    },
    {
      "hash": "0xea49e702e8894a449f1801a5c18ef5647e7379477a1c7a2395a700d94840b70f",
      "transactionType": "CALL",
      "contractName": null,
      "contractAddress": "0x95c9009c82fed445dedeecefc2aba6edeb920941",
      "function": "createTask(bytes32,uint256,uint256,((address,uint256),uint256,uint256),bytes)",
      "arguments": [
        "0x414de35b6300d2d30ea58b46717ad1cdf137d15e77b6e899d22521846ee4852b",
        "100000",
        "86400",
        "((0x20C000000000000000000000b9537d11c60E8b50, 100000), 0, 1773968025)",
        "0x2ab7e545053b7457bbc238f0c4e3edbb53a8b6fd9b604ea62aaba38272fd03b03e6a8bc0fb8e970682b96da0a326cfb7e5bfbbe38086ed56c883e4af909e07041c"
      ],
      "transaction": {
        "from": "0xc88d3c73b71e6814785a0514af9ddcfa44aa93cf",
        "to": "0x95c9009c82fed445dedeecefc2aba6edeb920941",
        "gas": "0x4527f",
        "value": "0x0",
        "input": "0xd175d9dc414de35b6300d2d30ea58b46717ad1cdf137d15e77b6e899d22521846ee4852b00000000000000000000000000000000000000000000000000000000000186a0000000000000000000000000000000000000000000000000000000000001518000000000000000000000000020c000000000000000000000b9537d11c60e8b5000000000000000000000000000000000000000000000000000000000000186a000000000000000000000000000000000000000000000000000000000000000000000000000000000000000000000000000000000000000000000000069bc9a99000000000000000000000000000000000000000000000000000000000000010000000000000000000000000000000000000000000000000000000000000000412ab7e545053b7457bbc238f0c4e3edbb53a8b6fd9b604ea62aaba38272fd03b03e6a8bc0fb8e970682b96da0a326cfb7e5bfbbe38086ed56c883e4af909e07041c00000000000000000000000000000000000000000000000000000000000000",
        "nonce": "0x3",
        "chainId": "0x1079",
        "feeToken": "0x20c000000000000000000000b9537d11c60e8b50",
        "calls": [],
        "keyType": null,
        "keyData": null
      },
      "additionalContracts": [],
      "isFixedGasLimit": false
    },
    {
      "hash": "0x2cfc5da58b9332e35bf27123b5c6fe1721ba074ed8a3db6c4f0b1b1bc6005022",
      "transactionType": "CALL",
      "contractName": null,
      "contractAddress": "0x95c9009c82fed445dedeecefc2aba6edeb920941",
      "function": "authorizeAgent(bytes32,address)",
      "arguments": [
        "0x414de35b6300d2d30ea58b46717ad1cdf137d15e77b6e899d22521846ee4852b",
        "0x016BBbEC8Fb7CF59c0baa082f056eb650368051D"
      ],
      "transaction": {
        "from": "0xc88d3c73b71e6814785a0514af9ddcfa44aa93cf",
        "to": "0x95c9009c82fed445dedeecefc2aba6edeb920941",
        "gas": "0x1081d",
        "value": "0x0",
        "input": "0x617a0de1414de35b6300d2d30ea58b46717ad1cdf137d15e77b6e899d22521846ee4852b000000000000000000000000016bbbec8fb7cf59c0baa082f056eb650368051d",
        "nonce": "0x4",
        "chainId": "0x1079",
        "feeToken": "0x20c000000000000000000000b9537d11c60e8b50",
        "calls": [],
        "keyType": null,
        "keyData": null
      },
      "additionalContracts": [],
      "isFixedGasLimit": false
    }
  ],
  "receipts": [
    {
      "type": "0x76",
      "status": "0x1",
      "cumulativeGasUsed": "0x4365a",
      "logs": [
        {
          "address": "0x20c000000000000000000000b9537d11c60e8b50",
          "topics": [
            "0x8c5be1e5ebec7d5bd14f71427d1e84f3dd0314c0f7b2291e5b200ac8c7c3b925",
            "0x000000000000000000000000c88d3c73b71e6814785a0514af9ddcfa44aa93cf",
            "0x000000000000000000000000000000000022d473030f116ddee9f6b43ac78ba3"
          ],
          "data": "0xffffffffffffffffffffffffffffffffffffffffffffffffffffffffffffffff",
          "blockHash": "0xf129b0977a29a0e2d52055a8aeaa1c811904fa54520720771926f98c9cfa9682",
          "blockNumber": "0x9c74a3",
          "blockTimestamp": "0x69bc8c96",
          "transactionHash": "0x7395a7981ea7c8a5dc10afbb5a8ab9d5f9eb4baf0e8c707303e382204d106188",
          "transactionIndex": "0x0",
          "logIndex": "0x0",
          "removed": false
        },
        {
          "address": "0x20c000000000000000000000b9537d11c60e8b50",
          "topics": [
            "0xddf252ad1be2c89b69c2b068fc378daa952ba7f163c4a11628f55a4df523b3ef",
            "0x000000000000000000000000c88d3c73b71e6814785a0514af9ddcfa44aa93cf",
            "0x000000000000000000000000feec000000000000000000000000000000000000"
          ],
          "data": "0x0000000000000000000000000000000000000000000000000000000000001592",
          "blockHash": "0xf129b0977a29a0e2d52055a8aeaa1c811904fa54520720771926f98c9cfa9682",
          "blockNumber": "0x9c74a3",
          "blockTimestamp": "0x69bc8c96",
          "transactionHash": "0x7395a7981ea7c8a5dc10afbb5a8ab9d5f9eb4baf0e8c707303e382204d106188",
          "transactionIndex": "0x0",
          "logIndex": "0x1",
          "removed": false
        }
      ],
      "logsBloom": "0x00000000000000100000000000000000000000000000000000000000000000000000000000000000000000000000000000000000800000000000000000200000000004000000000000004008000000000000000000000800000000000000000000000000000000000200000000000000000080000000000000000010000000000000000000000000000000000020000004000000000000000000000000000000020020000000000000000000000000000000000000000000000000000000000000000002000000000000000000040000000000000000000000000000000000000010000000000000000000000400000000000000000000000000000000000000",
      "transactionHash": "0x7395a7981ea7c8a5dc10afbb5a8ab9d5f9eb4baf0e8c707303e382204d106188",
      "transactionIndex": "0x0",
      "blockHash": "0xf129b0977a29a0e2d52055a8aeaa1c811904fa54520720771926f98c9cfa9682",
      "blockNumber": "0x9c74a3",
      "gasUsed": "0x4365a",
      "effectiveGasPrice": "0x4a817c801",
      "from": "0xc88d3c73b71e6814785a0514af9ddcfa44aa93cf",
      "to": "0x20c000000000000000000000b9537d11c60e8b50",
      "contractAddress": null,
      "feeToken": "0x20c000000000000000000000b9537d11c60e8b50",
      "feePayer": "0xc88d3c73b71e6814785a0514af9ddcfa44aa93cf"
    },
    {
      "type": "0x76",
      "status": "0x1",
      "cumulativeGasUsed": "0x18bc49",
      "logs": [
        {
          "address": "0x20c000000000000000000000b9537d11c60e8b50",
          "topics": [
            "0xddf252ad1be2c89b69c2b068fc378daa952ba7f163c4a11628f55a4df523b3ef",
            "0x000000000000000000000000c88d3c73b71e6814785a0514af9ddcfa44aa93cf",
            "0x00000000000000000000000095c9009c82fed445dedeecefc2aba6edeb920941"
          ],
          "data": "0x00000000000000000000000000000000000000000000000000000000000186a0",
          "blockHash": "0x4d985a976249405ee781cdd74441bda9dadf8bf7c6c6e88f9f407e079e0acf78",
          "blockNumber": "0x9c74a9",
          "blockTimestamp": "0x69bc8c99",
          "transactionHash": "0xea49e702e8894a449f1801a5c18ef5647e7379477a1c7a2395a700d94840b70f",
          "transactionIndex": "0x1",
          "logIndex": "0x3",
          "removed": false
        },
        {
          "address": "0x95c9009c82fed445dedeecefc2aba6edeb920941",
          "topics": [
            "0x370f35ad517545da5f93d96b29611cc848837fe3b93e1b885e05d9a5a2fe8808",
            "0x414de35b6300d2d30ea58b46717ad1cdf137d15e77b6e899d22521846ee4852b",
            "0x000000000000000000000000c88d3c73b71e6814785a0514af9ddcfa44aa93cf"
          ],
          "data": "0x00000000000000000000000000000000000000000000000000000000000186a00000000000000000000000000000000000000000000000000000000069bdde19",
          "blockHash": "0x4d985a976249405ee781cdd74441bda9dadf8bf7c6c6e88f9f407e079e0acf78",
          "blockNumber": "0x9c74a9",
          "blockTimestamp": "0x69bc8c99",
          "transactionHash": "0xea49e702e8894a449f1801a5c18ef5647e7379477a1c7a2395a700d94840b70f",
          "transactionIndex": "0x1",
          "logIndex": "0x4",
          "removed": false
        },
        {
          "address": "0x20c000000000000000000000b9537d11c60e8b50",
          "topics": [
            "0xddf252ad1be2c89b69c2b068fc378daa952ba7f163c4a11628f55a4df523b3ef",
            "0x000000000000000000000000c88d3c73b71e6814785a0514af9ddcfa44aa93cf",
            "0x000000000000000000000000feec000000000000000000000000000000000000"
          ],
          "data": "0x0000000000000000000000000000000000000000000000000000000000007a60",
          "blockHash": "0x4d985a976249405ee781cdd74441bda9dadf8bf7c6c6e88f9f407e079e0acf78",
          "blockNumber": "0x9c74a9",
          "blockTimestamp": "0x69bc8c99",
          "transactionHash": "0xea49e702e8894a449f1801a5c18ef5647e7379477a1c7a2395a700d94840b70f",
          "transactionIndex": "0x1",
          "logIndex": "0x5",
          "removed": false
        }
      ],
      "logsBloom": "0x00000000004000100000000000000001000000000000000000000000000000000000000000000000000000000000000200000000000000000000010000000000000004000000000000000008008000000000000000000080000000000000000000000000000000000200000004000000000080000000000000000010000000000000000000000001000000000820000004000000000000000000000000000000000024000000000000000000000000000000000000000000000000000000000000000002000000000000000000040000000000000000002000000000000000000000000000200000000000000400000000000000000000000000000000000000",
      "transactionHash": "0xea49e702e8894a449f1801a5c18ef5647e7379477a1c7a2395a700d94840b70f",
      "transactionIndex": "0x1",
      "blockHash": "0x4d985a976249405ee781cdd74441bda9dadf8bf7c6c6e88f9f407e079e0acf78",
      "blockNumber": "0x9c74a9",
      "gasUsed": "0x17e6aa",
      "effectiveGasPrice": "0x4a817c801",
      "from": "0xc88d3c73b71e6814785a0514af9ddcfa44aa93cf",
      "to": "0x95c9009c82fed445dedeecefc2aba6edeb920941",
      "contractAddress": null,
      "feeToken": "0x20c000000000000000000000b9537d11c60e8b50",
      "feePayer": "0xc88d3c73b71e6814785a0514af9ddcfa44aa93cf"
    },
    {
      "type": "0x76",
      "status": "0x1",
      "cumulativeGasUsed": "0x1acd7b",
      "logs": [
        {
          "address": "0x95c9009c82fed445dedeecefc2aba6edeb920941",
          "topics": [
            "0x7ef2d1c7e8e87602f828ac4d5bab30a078515e8bb755eacf4ffcc813ea3d54e7",
            "0x414de35b6300d2d30ea58b46717ad1cdf137d15e77b6e899d22521846ee4852b",
            "0x000000000000000000000000016bbbec8fb7cf59c0baa082f056eb650368051d"
          ],
          "data": "0x",
          "blockHash": "0xecccdfe5d82f3b2c7dad0f0ea519048aa5cbe74919dbf7bbe28de4d13dfbc058",
          "blockNumber": "0x9c74af",
          "blockTimestamp": "0x69bc8c9c",
          "transactionHash": "0x2cfc5da58b9332e35bf27123b5c6fe1721ba074ed8a3db6c4f0b1b1bc6005022",
          "transactionIndex": "0x1",
          "logIndex": "0xf",
          "removed": false
        },
        {
          "address": "0x20c000000000000000000000b9537d11c60e8b50",
          "topics": [
            "0xddf252ad1be2c89b69c2b068fc378daa952ba7f163c4a11628f55a4df523b3ef",
            "0x000000000000000000000000c88d3c73b71e6814785a0514af9ddcfa44aa93cf",
            "0x000000000000000000000000feec000000000000000000000000000000000000"
          ],
          "data": "0x00000000000000000000000000000000000000000000000000000000000015ce",
          "blockHash": "0xecccdfe5d82f3b2c7dad0f0ea519048aa5cbe74919dbf7bbe28de4d13dfbc058",
          "blockNumber": "0x9c74af",
          "blockTimestamp": "0x69bc8c9c",
          "transactionHash": "0x2cfc5da58b9332e35bf27123b5c6fe1721ba074ed8a3db6c4f0b1b1bc6005022",
          "transactionIndex": "0x1",
          "logIndex": "0x10",
          "removed": false
        }
      ],
      "logsBloom": "0x00000000004000100000000000000001000000000000000000000000000000000000000000000000000000000000000200000000000000000000000000000002000004000000000000000008000000000000000000080000000000000000000000000000000000000200002004000000000080000000000000000010000000000000000000000001000000000020000004000000000000000000000000000000000020000800000000000000000000000000000000000000000000000000000000000002000000020000000000040000000000000000000000000000000000000000000000200000000000000400000000000000000000000000000000000008",
      "transactionHash": "0x2cfc5da58b9332e35bf27123b5c6fe1721ba074ed8a3db6c4f0b1b1bc6005022",
      "transactionIndex": "0x1",
      "blockHash": "0xecccdfe5d82f3b2c7dad0f0ea519048aa5cbe74919dbf7bbe28de4d13dfbc058",
      "blockNumber": "0x9c74af",
      "gasUsed": "0x4420b",
      "effectiveGasPrice": "0x4a817c801",
      "from": "0xc88d3c73b71e6814785a0514af9ddcfa44aa93cf",
      "to": "0x95c9009c82fed445dedeecefc2aba6edeb920941",
      "contractAddress": null,
      "feeToken": "0x20c000000000000000000000b9537d11c60e8b50",
      "feePayer": "0xc88d3c73b71e6814785a0514af9ddcfa44aa93cf"
    }
  ],
  "libraries": [],
  "pending": [],
  "returns": {},
  "timestamp": 1773964446042,
  "chain": 4217,
  "commit": "bc3a7a5"
}