{
  "transactions": [
    {
      "hash": "0x65d2496f557064ac258331c06fb7f12bf2c8b403cbb07702b79ecd194013bbe3",
      "transactionType": "CALL",
      "contractName": null,
      "contractAddress": "0x20c000000000000000000000b9537d11c60e8b50",
      "function": "approve(address,uint256)",
      "arguments": [
        "0x000000000022D473030F116dDEE9F6B43aC78BA3",
        "115792089237316195423570985008687907853269984665640564039457584007913129639935"
      ],
      "transaction": {
        "from": "0xc88d3c73b71e6814785a0514af9ddcfa44aa93cf",
        "to": "0x20c000000000000000000000b9537d11c60e8b50",
        "gas": "0x8610",
        "value": "0x0",
        "input": "0x095ea7b3000000000000000000000000000000000022d473030f116ddee9f6b43ac78ba3ffffffffffffffffffffffffffffffffffffffffffffffffffffffffffffffff",
        "nonce": "0x5",
        "chainId": "0x1079",
        "feeToken": "0x20c000000000000000000000b9537d11c60e8b50",
        "calls": [],
        "keyType": null,
        "keyData": null
      },
      "additionalContracts": [],
      "isFixedGasLimit": false
    },
    {
      "hash": "0x6df586516e16b5f0ee31ef89927071997730c6d07ad767747e80aa970e9867cf",
      "transactionType": "CALL",
      "contractName": null,
      "contractAddress": "0x95c9009c82fed445dedeecefc2aba6edeb920941",
      "function": "createTask(bytes32,uint256,uint256,((address,uint256),uint256,uint256),bytes)",
      "arguments": [
        "0x9c4d16d062c91814625a777e7a6ff8da172aa003d58772bfacddcefaa3c214dc",
        "50000",
        "86400",
        "((0x20C000000000000000000000b9537d11c60E8b50, 50000), 1, 1773969230)",
        "0x0486b8127b0970b2f502b39c722a8509d4f72220a414bd0187f00d10d43634c14333ea1149eaba69d01062478ca340341998df7f7f4126377b2288a407fb1bba1b"
      ],
      "transaction": {
        "from": "0xc88d3c73b71e6814785a0514af9ddcfa44aa93cf",
        "to": "0x95c9009c82fed445dedeecefc2aba6edeb920941",
        "gas": "0x15c085",
        "value": "0x0",
        "input": "0xd175d9dc9c4d16d062c91814625a777e7a6ff8da172aa003d58772bfacddcefaa3c214dc000000000000000000000000000000000000000000000000000000000000c350000000000000000000000000000000000000000000000000000000000001518000000000000000000000000020c000000000000000000000b9537d11c60e8b50000000000000000000000000000000000000000000000000000000000000c35000000000000000000000000000000000000000000000000000000000000000010000000000000000000000000000000000000000000000000000000069bc9f4e000000000000000000000000000000000000000000000000000000000000010000000000000000000000000000000000000000000000000000000000000000410486b8127b0970b2f502b39c722a8509d4f72220a414bd0187f00d10d43634c14333ea1149eaba69d01062478ca340341998df7f7f4126377b2288a407fb1bba1b00000000000000000000000000000000000000000000000000000000000000",
        "nonce": "0x6",
        "chainId": "0x1079",
        "feeToken": "0x20c000000000000000000000b9537d11c60e8b50",
        "calls": [],
        "keyType": null,
        "keyData": null
      },
      "additionalContracts": [],
      "isFixedGasLimit": false
    },
    {
      "hash": "0xe3e055e4c6f53d23a8609c7584042039220f9eea3730899bfee485ae3527712b",
      "transactionType": "CALL",
      "contractName": null,
      "contractAddress": "0x95c9009c82fed445dedeecefc2aba6edeb920941",
      "function": "authorizeAgent(bytes32,address)",
      "arguments": [
        "0x9c4d16d062c91814625a777e7a6ff8da172aa003d58772bfacddcefaa3c214dc",
        "0x016BBbEC8Fb7CF59c0baa082f056eb650368051D"
      ],
      "transaction": {
        "from": "0xc88d3c73b71e6814785a0514af9ddcfa44aa93cf",
        "to": "0x95c9009c82fed445dedeecefc2aba6edeb920941",
        "gas": "0x117b7",
        "value": "0x0",
        "input": "0x617a0de19c4d16d062c91814625a777e7a6ff8da172aa003d58772bfacddcefaa3c214dc000000000000000000000000016bbbec8fb7cf59c0baa082f056eb650368051d",
        "nonce": "0x7",
        "chainId": "0x1079",
        "feeToken": "0x20c000000000000000000000b9537d11c60e8b50",
        "calls": [],
        "keyType": null,
        "keyData": null
      },
      "additionalContracts": [],
      "isFixedGasLimit": false
    }
  ],
  "receipts": [
    {
      "type": "0x76",
      "status": "0x1",
      "cumulativeGasUsed": "0x65ca",
      "logs": [
        {
          "address": "0x20c000000000000000000000b9537d11c60e8b50",
          "topics": [
            "0x8c5be1e5ebec7d5bd14f71427d1e84f3dd0314c0f7b2291e5b200ac8c7c3b925",
            "0x000000000000000000000000c88d3c73b71e6814785a0514af9ddcfa44aa93cf",
            "0x000000000000000000000000000000000022d473030f116ddee9f6b43ac78ba3"
          ],
          "data": "0xffffffffffffffffffffffffffffffffffffffffffffffffffffffffffffffff",
          "blockHash": "0x34b93aaf6c0776f25b0155d45f244d32a438b4734ad0aa6b8222cc414fbd86b0",
          "blockNumber": "0x9c7e38",
          "blockTimestamp": "0x69bc914b",
          "transactionHash": "0x65d2496f557064ac258331c06fb7f12bf2c8b403cbb07702b79ecd194013bbe3",
          "transactionIndex": "0x0",
          "logIndex": "0x0",
          "removed": false
        },
        {
          "address": "0x20c000000000000000000000b9537d11c60e8b50",
          "topics": [
            "0xddf252ad1be2c89b69c2b068fc378daa952ba7f163c4a11628f55a4df523b3ef",
            "0x000000000000000000000000c88d3c73b71e6814785a0514af9ddcfa44aa93cf",
            "0x000000000000000000000000feec000000000000000000000000000000000000"
          ],
          "data": "0x0000000000000000000000000000000000000000000000000000000000000413",
          "blockHash": "0x34b93aaf6c0776f25b0155d45f244d32a438b4734ad0aa6b8222cc414fbd86b0",
          "blockNumber": "0x9c7e38",
          "blockTimestamp": "0x69bc914b",
          "transactionHash": "0x65d2496f557064ac258331c06fb7f12bf2c8b403cbb07702b79ecd194013bbe3",
          "transactionIndex": "0x0",
          "logIndex": "0x1",
          "removed": false
        }
      ],
      "logsBloom": "0x00000000000000100000000000000000000000000000000000000000000000000000000000000000000000000000000000000000800000000000000000200000000004000000000000004008000000000000000000000800000000000000000000000000000000000200000000000000000080000000000000000010000000000000000000000000000000000020000004000000000000000000000000000000020020000000000000000000000000000000000000000000000000000000000000000002000000000000000000040000000000000000000000000000000000000010000000000000000000000400000000000000000000000000000000000000",
      "transactionHash": "0x65d2496f557064ac258331c06fb7f12bf2c8b403cbb07702b79ecd194013bbe3",
      "transactionIndex": "0x0",
      "blockHash": "0x34b93aaf6c0776f25b0155d45f244d32a438b4734ad0aa6b8222cc414fbd86b0",
      "blockNumber": "0x9c7e38",
      "gasUsed": "0x65ca",
      "effectiveGasPrice": "0x9502f9000",
      "from": "0xc88d3c73b71e6814785a0514af9ddcfa44aa93cf",
      "to": "0x20c000000000000000000000b9537d11c60e8b50",
      "contractAddress": null,
      "feeToken": "0x20c000000000000000000000b9537d11c60e8b50",
      "feePayer": "0xc88d3c73b71e6814785a0514af9ddcfa44aa93cf"
    },
    {
      "type": "0x76",
      "status": "0x1",
      "cumulativeGasUsed": "0x105b6a",
      "logs": [
        {
          "address": "0x20c000000000000000000000b9537d11c60e8b50",
          "topics": [
            "0xddf252ad1be2c89b69c2b068fc378daa952ba7f163c4a11628f55a4df523b3ef",
            "0x000000000000000000000000c88d3c73b71e6814785a0514af9ddcfa44aa93cf",
            "0x00000000000000000000000095c9009c82fed445dedeecefc2aba6edeb920941"
          ],
          "data": "0x000000000000000000000000000000000000000000000000000000000000c350",
          "blockHash": "0xd976a57d50beb1f12b5c40f56bcd3cbde7bb8f51c0a2fce0909185802380ff66",
          "blockNumber": "0x9c7e40",
          "blockTimestamp": "0x69bc914e",
          "transactionHash": "0x6df586516e16b5f0ee31ef89927071997730c6d07ad767747e80aa970e9867cf",
          "transactionIndex": "0x0",
          "logIndex": "0x0",
          "removed": false
        },
        {
          "address": "0x95c9009c82fed445dedeecefc2aba6edeb920941",
          "topics": [
            "0x370f35ad517545da5f93d96b29611cc848837fe3b93e1b885e05d9a5a2fe8808",
            "0x9c4d16d062c91814625a777e7a6ff8da172aa003d58772bfacddcefaa3c214dc",
            "0x000000000000000000000000c88d3c73b71e6814785a0514af9ddcfa44aa93cf"
          ],
          "data": "0x000000000000000000000000000000000000000000000000000000000000c3500000000000000000000000000000000000000000000000000000000069bde2ce",
          "blockHash": "0xd976a57d50beb1f12b5c40f56bcd3cbde7bb8f51c0a2fce0909185802380ff66",
          "blockNumber": "0x9c7e40",
          "blockTimestamp": "0x69bc914e",
          "transactionHash": "0x6df586516e16b5f0ee31ef89927071997730c6d07ad767747e80aa970e9867cf",
          "transactionIndex": "0x0",
          "logIndex": "0x1",
          "removed": false
        },
        {
          "address": "0x20c000000000000000000000b9537d11c60e8b50",
          "topics": [
            "0xddf252ad1be2c89b69c2b068fc378daa952ba7f163c4a11628f55a4df523b3ef",
            "0x000000000000000000000000c88d3c73b71e6814785a0514af9ddcfa44aa93cf",
            "0x000000000000000000000000feec000000000000000000000000000000000000"
          ],
          "data": "0x000000000000000000000000000000000000000000000000000000000000a780",
          "blockHash": "0xd976a57d50beb1f12b5c40f56bcd3cbde7bb8f51c0a2fce0909185802380ff66",
          "blockNumber": "0x9c7e40",
          "blockTimestamp": "0x69bc914e",
          "transactionHash": "0x6df586516e16b5f0ee31ef89927071997730c6d07ad767747e80aa970e9867cf",
          "transactionIndex": "0x0",
          "logIndex": "0x2",
          "removed": false
        }
      ],
      "logsBloom": "0x00000000000000100000000000000001000000000000000000000000000000000000000000000000000000000000000000000000000000000000010000000000000004000000000000000008008000000000000000000080000000000000000000000000000000000200000004000000000080000000000000000010000000000000000000000000000000000820000004000000000004000000000000000000000024000000000000000000000000000000001000000000000000040000000000000002000000000000000000040000000000000000002000000000000000000000000000200000000000000400000000000000000000000000000000000000",
      "transactionHash": "0x6df586516e16b5f0ee31ef89927071997730c6d07ad767747e80aa970e9867cf",
      "transactionIndex": "0x0",
      "blockHash": "0xd976a57d50beb1f12b5c40f56bcd3cbde7bb8f51c0a2fce0909185802380ff66",
      "blockNumber": "0x9c7e40",
      "gasUsed": "0x105b6a",
      "effectiveGasPrice": "0x9502f9000",
      "from": "0xc88d3c73b71e6814785a0514af9ddcfa44aa93cf",
      "to": "0x95c9009c82fed445dedeecefc2aba6edeb920941",
      "contractAddress": null,
      "feeToken": "0x20c000000000000000000000b9537d11c60e8b50",
      "feePayer": "0xc88d3c73b71e6814785a0514af9ddcfa44aa93cf"
    },
    {
      "type": "0x76",
      "status": "0x1",
      "cumulativeGasUsed": "0x44217",
      "logs": [
        {
          "address": "0x95c9009c82fed445dedeecefc2aba6edeb920941",
          "topics": [
            "0x7ef2d1c7e8e87602f828ac4d5bab30a078515e8bb755eacf4ffcc813ea3d54e7",
            "0x9c4d16d062c91814625a777e7a6ff8da172aa003d58772bfacddcefaa3c214dc",
            "0x000000000000000000000000016bbbec8fb7cf59c0baa082f056eb650368051d"
          ],
          "data": "0x",
          "blockHash": "0xd457d4162b432b371bd7b3705e8eddcee85764ead1dbbb33f7e52a06bf3c90f4",
          "blockNumber": "0x9c7e46",
          "blockTimestamp": "0x69bc9151",
          "transactionHash": "0xe3e055e4c6f53d23a8609c7584042039220f9eea3730899bfee485ae3527712b",
          "transactionIndex": "0x0",
          "logIndex": "0x0",
          "removed": false
        },
        {
          "address": "0x20c000000000000000000000b9537d11c60e8b50",
          "topics": [
            "0xddf252ad1be2c89b69c2b068fc378daa952ba7f163c4a11628f55a4df523b3ef",
            "0x000000000000000000000000c88d3c73b71e6814785a0514af9ddcfa44aa93cf",
            "0x000000000000000000000000feec000000000000000000000000000000000000"
          ],
          "data": "0x0000000000000000000000000000000000000000000000000000000000002b9b",
          "blockHash": "0xd457d4162b432b371bd7b3705e8eddcee85764ead1dbbb33f7e52a06bf3c90f4",
          "blockNumber": "0x9c7e46",
          "blockTimestamp": "0x69bc9151",
          "transactionHash": "0xe3e055e4c6f53d23a8609c7584042039220f9eea3730899bfee485ae3527712b",
          "transactionIndex": "0x0",
          "logIndex": "0x1",
          "removed": false
        }
      ],
      "logsBloom": "0x00000000000000100000000000000001000000000000000000000000000000000000000000000000000000000000000000000000000000000000000000000002000004000000000000000008000000000000000000080000000000000000000000000000000000000200002004000000000080000000000000000010000000000000000000000000000000000020000004000000000004000000000000000000000020000800000000000000000000000000001000000000000000040000000000000002000000020000000000040000000000000000000000000000000000000000000000200000000000000400000000000000000000000000000000000008",
      "transactionHash": "0xe3e055e4c6f53d23a8609c7584042039220f9eea3730899bfee485ae3527712b",
      "transactionIndex": "0x0",
      "blockHash": "0xd457d4162b432b371bd7b3705e8eddcee85764ead1dbbb33f7e52a06bf3c90f4",
      "blockNumber": "0x9c7e46",
      "gasUsed": "0x44217",
      "effectiveGasPrice": "0x9502f9000",
      "from": "0xc88d3c73b71e6814785a0514af9ddcfa44aa93cf",
      "to": "0x95c9009c82fed445dedeecefc2aba6edeb920941",
      "contractAddress": null,
      "feeToken": "0x20c000000000000000000000b9537d11c60e8b50",
      "feePayer": "0xc88d3c73b71e6814785a0514af9ddcfa44aa93cf"
    }
  ],
  "libraries": [],
  "pending": [],
  "returns": {},
  "timestamp": 1773965651763,
  "chain": 4217,
  "commit": "7d534c7"
}